:20000000183F0020C97E0000FDC90110FDC90110FDC90110FDC90110FDC90110FDC9011018
:1C002000FDC90110FDC90110FDC90110FDC90110FDC90110FDC901103BCA0110A4
:20003C002DE9F04F0120ADF15C0DADF81A000827ADF8187006A808F0FDFA00263546DF4CA3
:20005C008DF854509DF81C006070A6700898E0614FF6FF70A082384609F0B4F85FEA000899
:20007C000CD00121122209F08AFC09F0BBF815A90123D64A0091414608F0A6F99DF854006D
:20009C00DFF86C83324601232070414604F1A80007F080FE04F1CC0032460223414607F0DD
:2000BC0079FE04F1F00032460423414607F072FE042031461022E07004F1480006F07CFF70
:2000DC0004F158003146102206F076FF2562267266720720E67204F148021021A072022089
:2000FC0008F092FB04F158020320102108F08CFB042004F12002014608F086FB19E0A07831
:20011C00B4F84050B4F84230B4F84420B4F8461006280ED1ADF84250ADF84430ADF84620EF
:20013C00CC48ADF8481009F064FD012010A906F001FF0A20ADF80A00ADF808704FF0FF35FF
:20015C00039502A808F076FA002840F0E38130460C90ADF824700925ADF8265009A808F0E0
:20017C0069FADDF82C900028CDF8309040F0D281BDF82800102840F0C18160789DF82A1011
:20019C00884240F0BB814D4628884FF6FF71814200F0AC812B78A23B00F091812E3B40F01A
:2001BC00AD81A878B046002800F05E81801E00F03681401E012840F20B81801E00F0B98097
:2001DC00401E7FD0401E60D0083800F06981801E40F06B8194F83E30A888052BADF83400C1
:2001FC004BD001208DF83E009A4809F002FD94F83E00012820D004281ED003280DD00228DB
:20021C000BD00C98C188ADF836100189ADF838104189ADF83A1080892BE0B4F84000B4F833
:20023C004250ADF83600B4F84430ADF83850B4F84600ADF83A301CE0B4F84000E9888842C4
:20025C00D8BF081CADF836002989B4F842008842D8BF081CADF838006989B4F8440088423E
:20027C00D8BF081CADF83A00B4F84610A889814200DC0146ADF83C1001E08DF83E60B24ABE
:20029C000DA8122108F05BFB0FE1B04809F0B1FC6878002840F00981E888E0822889208396
:2002BC00688960836B4809F0F1FA002840F0FD80A56A002D00F0F9802B68E08A218B628BA7
:2002DC009847F2E0B5F804A00A2008F07BFF5FEA00080AD00121152209F051FBA8F808A053
:2002FC0008F080FF414608F04BFDBA483146062206F062FEE68226836683A8796073554822
:20031C0009F077FC914809F074FC4FF001084FF6FF706379A0824BB9A879082814BF0420CD
:20033C000520A070404609F085F9BEE00320A070BBE06878002843D1A649281D02680A60DF
:20035C00808888800623A3706889A082E889E082288A2083688A6083E878207394F83E0068
:20037C00012818BF022808D11F2007F0C5FE4FF47A714143374808F0B9F895F803B0B5F89E
:20039C000AA0142008F01EFF5FEA000800F090800121142209F0F3FA88F808B02D1DC8F87D
:2003BC000C50A8F810A0042088F8120008F01AFF814A414607F0EAFF7AE0C046640A00208E
:2003DC00687831286AD12671042022E08D9900006878002862D1A878618AA278032813D03C
:2003FC002079657931B9012814BF6671267107E051960000054303D0724808F077F8A278F2
:20041C00072AE1D1062004E0062A06D0207910B90320A0704CE00220FBE70720F9E7687821
:20043C0000283BD1EB78A078E179ABB9022818D0072816D0062802D16179012911D10328FA
:20045C000FD0604809F022FA58B9012009F0F2F807E0C046300B00205F4A404607F090FBD6
:20047C0068706878D0B920E06878B8B9564A0220102108F0E3F9554A0320102108F0DEF945
:20049C005648ED1C29680160AB888380544A01252846A179A57007F073FB48B1A77007E0B4
:2004BC00A888464A102108F031FAB8F1010F25D1606A18B3016809B3A07888471EE06879DD
:2004DC0013281BD12889012808D1A07B022805D11E4809F08EFB07F039FC0FE0052007F0EC
:2004FC000BFE0146194808F001F807E06888C00B04D3374A0420014608F0A0F90C9848B1AB
:20051C00ADF810700320ADF81200CDF8149004A808F090F8208A65792179420831D320F0AB
:20053C00010055EA010320822BD08DB92D49207A8DF84A00657A8DF84B500A6813AB1A60F0
:20055C008988998007E0C046699B0000540B002003208DF84A00A07AE57A194A8DF8520040
:20057C0006218DF853500DF14A0007F0C1FC616A30B1A77021B1086810B109683846884790
:20059C00208A810807D3184920F002002082304606F0D0FC208AC108FFF4CBAD20F00400F3
:2005BC00A57B2082681E3FF4AAAD401E7FF4C1AD07F0CCFBBDE5C046559900008D9B000092
:2005DC00819B00000C0B0020AC0A0020BC0A0020840A00209C0A0020EB0A0020900A0020AD
:2005FC00CC0A0020960A0020A20A0020C06B7047406B70477047C163704701607047C8B5F2
:20061C00C76867B98768002F08BFB0200ED001687E1E0427091D01600968866000E0416845
:20063C000A027F1E4260090EC7600846C8BD1029BCBF50F821001060704740F821207047CE
:20065C000246084698B511464FF6FF7201F1340382420DD34A6B00F4005738B1440824BFA9
:20067C0052F8044B0C60091D4008F7D107B91A6098BD2DE9F04FADF1540D08904FF0000C5D
:20069C000A930D46099230F00100CDF830C003D0089F022F40F0BE81184630F0010003D071
:2006BC001846022840F0B681686BA96B0B90480880F01181089830F001000DD11846012835
:2006DC0003D0022818BF604601D10B9880780B9C04EB8004241D00E0EC6A60460E9013909F
:2006FC000F9027681FB9012800F0F380F3E00A98012809D9801E0CD0401E012804D90920C5
:20071C000D9001270E9708E0B4F800806688241D03E0D4F800806668083408F0010106F0E7
:20073C00010050EA410000F0B180401E46D0401E40F0CD80286B321861680998A8F10108C8
:20075C00FFF754FF03460998FFF752FF07460846FFF750FFDDF820C0BCF1000F17D19A42EE
:20077C001BD842449A4218D911F1020F00F0AF80B1F1FF3F05D0014605AA284603F02FFAB0
:20079C0058B16F610599EC610620A961A0E06869B84202D1E869A04205D00F98012800F063
:2007BC009880083480E0204604F0FCFF01460998FFF721FF2946FFF720FF86E0286B27680A
:2007DC00761E31180998FFF711FF02460998FFF70FFF139B1290F80F109327F0004780F0C4
:2007FC000100089B11901BBB914245D808EB0100904241D9DDF84C9087B1A346BA465BF8CD
:20081C00040FFFF7F7FE014606AA284603F0E7F920B9BAF1010A09F10109F0D14F452BD1A2
:20083C00EC6106210D9112986861069BAB6121E06869129988421FD1E869A0421CD10422ED
:20085C00EF61211D6A621398A962119B2862002B1CBF01200C900FD104EB8700001D04F00C
:20087C00A1FF01460998FFF7C6FE2946FFF7C5FE07200D90012010901198109B80F00100A8
:20089C003F187F1C04EB870473B122E0286B31180998A146FFF7AAFE089F241D27B1814225
:2008BC0002D84144814204D80E9800283FF419AF0FE0EC6203F040F9203D4560484604F068
:2008DC0071FF01460998FFF796FE072000E009200D900D98FCE00A9F0B98009037B90021DF
:2008FC000291032703970068000206E0006802210391C0F307410291000401906846FFF74F
:20091C007EFE04464FF0000CB02C00F0B6800127402CC0F29D80802CC0F28B80902C73DBD2
:20093C00A02C5DDBB02C45DBB82C0DDBC02C71DBC82C04DBC82C0ED0C92C0CD06AE0C72CE4
:20095C0009D0C62C07D065E0B12C27D0B22C06D0B32C40F08B806846FFF751FE5AE000269F
:20097C0034466846FFF74BFE034603F07F00A04033F07F0340EA06060DD109980D2107AA20
:20099C00FFF755FE079A099802EB860202F50172FFF753FE6AE0E41DE4B2E2E76846FFF73C
:2009BC002EFE00F00F01481E0F2833D20998FFF747FE5BE004F0070620092CBF4FF480411D
:2009DC0000210020761C021D401C761E07FA02F2C0B242EA0101F6D10998FFF731FE45E0D2
:2009FC009D2C17D09F2C15D004F00F010E2911D00F290FD0099807AAFFF719FE079A0998A7
:200A1C000D21FFF71AFE31E06846FFF7F8FD802C02D108B909205BE0240304F4704444EA2F
:200A3C00001409982146FFF70BFE200C28BFBC461CE009980D2107AAFFF7F9FD079AA000C1
:200A5C0000F0FC00121A0998121FFFF7F6FD0DE009980D2107AAFFF7EAFD079AA00000F02C
:200A7C00FC0012180998121DFFF7E7FD6846FFF7C6FD0446B02C7FF44BAFBCF1000F18BFFD
:200A9C0000210AD109980E2107AAFFF7D0FD079A09980F21FFF7D1FD01210C98012818BFFE
:200ABC00082015D1012909D009980F2104AAFFF7BEFD049A09980E21FFF7BFFD204A0998AE
:200ADC000F21FFF7BAFD00212A46FFF7B6FD072015B0BDE8F08F08B50023FFF7CAFD08BD71
:200AFC0008B50123FFF7C5FD08BD08B50223FFF7C0FD08BD08B506F04DFE08BD30B5044630
:200B1C0040220D46ADF1440D684605F0CDFF6846FFF76CFD0146204604F064FE68B92069EC
:200B3C0021466A460346002098470828EFD0062803D12046294604F0AEFE11B0092030BDFD
:200B5C00793E000008B508465169884207D005F0E7FC0346084605F0E3FC834202D1002061
:200B7C001062D06008BDB0B554690346A1421FD0084605F0D5FC0546204605F0D1FC854267
:200B9C0016D0176ABFB1D069984214D19069884207D005F0C5FC0346084605F0C1FC83420C
:200BBC0009D1506A10B10120106100275762B0BD13620120D060B0BD08B5042003F0DAF90B
:200BDC0005F0B0FC8C498D4A02F0F4FF08BD4968026809125158401870472DE9F04F8B46EE
:200BFC00ADF1440D141C1F9909931C9F08901E9E0C91DDF868900A971D991B9D0B9103D16E
:200C1C00FFF7DAFF002002E0206850F8040C9B494FF0000805F08CFC002840F0A8801CB90A
:200C3C00FFF7CAFF404602E0206850F8040C944905F07EFC002800F0DA800D944046CDF8E7
:200C5C003C80103410900D98C168074607EBC1001030A04240F2CB806368089A03F0010703
:200C7C000E975AB1580805D310462146FFF7AFFF074604E0174607EB232700E0109F0A9A12
:200C9C00109912B1980828BF012122680998904248D005F045FC8246104605F041FC8245C1
:200CBC0040D00F98069003468DF81C30CDF800900195029106AB039307A904910C9B059368
:200CDC00099B38465946FFF788FF18B92F68002F4BD070E02F68002F6DD1069F27B9606867
:200CFC00400824BF2068069037787FB19DF81C00022808BF022F09D00B98076817B106988C
:200D1C00B84203D001241098089468E00C9A9DF81C1006980B9B17684FF0010831701860AE
:200D3C00D7B922E0DBF80020002A18BFBA4258D1580802D33078012853D02A68002A50D1E6
:200D5C00580834BF0120022030700C98CBF800704FF00108016041B10E9F1FB95FEA5900A8
:200D7C0003D244E05FEA990041D308346BE7A2680998904222D005F0D3FB0146104605F016
:200D9C00CFFB81421AD0CDF80090019502970B98039004960C9C0594099B08985946FFF752
:200DBC001CFF10B9286830B921E02868002808BF4FF001081BD04FF0000818E0DBF80000F5
:200DDC0010B1089F87420CD13078022809D0286838B901200A9F0C9930705D460F60089CF8
:200DFC0003E00020CBF8000001242C608046404611B0BDE8F08FC0461CA30000C565000040
:200E1C002DE9F043054600200126984617460C46ADF12C0D0690002D079614BFD5F80090E7
:200E3C008146054625601FB9FFF7C6FE284602E0386850F8040C124905F07AFB00280CBF6D
:200E5C000320B868089521468DF824503A46009008AC06A801904346029609AF0394484635
:200E7C00049707AC0594FFF7B8FE10B1079800B1354628460BB0BDE8F083C046F8A2000056
:200E9C0004A300002DE9F04F0C464549CA7AADF12C0D84460592487B09900D7900958A7A63
:200EBC00488B4B8A0E7B91F805A091F802800492B1F846E008904A7A088B0392CD780790E7
:200EDC000A7AC88A02920F6A0690CA79888A01928A79E146A9F54079B9F11D0F10D8DFE88F
:200EFC0009F05B5553514F4D4B494643413F3C3A380F34312E2B2923201E1C0F19181716C2
:200F1C00BCF1280F49DA604607F0F6F821E0099EB246D046CDF814801DE008980790079841
:200F3C000690DDF818E005E03831086820608888A08032E070460AE0B1F8440009E0B1F893
:200F5C00420004E0B1F8400001E091F83E00034612E0208021E0059804900498039001E0A1
:200F7C003231E2E7039802900298009006E0019A87310DE068310BE01846EAE7009D0BE071
:200F9C002C31D2E7276008E0583100E048311022204605F089FD00E025700BB0BDE8F08F67
:200FBC00640A00202DE9F04108F01DFE0C4D002401278046643D05F1980607FA04F018EA96
:200FDC00000F06D056F8240018B102680AB1214690472868641CE4B28442EED9BDE8F08129
:040FFC0008120020B7
:201000003C000000000000000000000034100000000000000000000001000000000000004F
:1C10200000000000000000000000000001000000000000000800000000000000AB
:20103C003400000000000000000000006810000000000000000000000100000000000000E7
:14105C00010000000000000000000000080000000000000077
:2010700030000000000000000000000098100000040000000000000001000000FFFFFFFF87
:10109000FF00000001000000080000000000000048
:2010A0002C0000000000000000000000C4100000040000000000000001000000FFFFFFFF2F
:0C10C000FFFFFFFF080000000000000020
:2010CC0038140000E410000095A1011091A70110A1C2011009B2011041B8011000000000EA
:0810EC00000000002F000000CD
:2010F400280000000000000000000000141100000000000000000000FFFFFFFF0000000093
:081114000800000000000000CB
:20111C00341400003011000065C2011069C101101BC2011091BA011000000000000000006D
:04113C002D00000082
:20114000341400005411000071C20110A5B6011099BF011045B601100000000000000000BD
:041160002E0000005D
:201164002400000000000000000000008011000000000000000000000000000008000000AE
:041184000000000067
:20118800240000000000000000000000A41100000000000000000000000000000800000066
:0411A8000000000043
:2011AC00240000000000000000000000C8110000000000000100000000000000080000001D
:0411CC00000000001F
:2011D0000000000040170020040000000000000000000000200000007010000030000000B4
:2011F0001C110000481700200400000000000000000000000C0000003013000018000000C8
:2012100040110000501700200400000000000000000000002400000048130000180000004B
:20123000000000005817002004000000000000000000000010000000A01000002C0000001F
:20125000CC100000601700200400000000000000000000002000000064110000240000004E
:20127000FFFFFFFF68170020040000000000000000000000280000008811000024000000DA
:20129000FFFFFFFF70170020040000000000000000000000580000003C10000034000000BF
:2012B000FFFFFFFF78170020040000000000000000000000100000006013000018000000D4
:2012D000FFFFFFFF801700200400000000000000000000001C000000AC110000240000004A
:2012F000FFFFFFFF8817002004000000000000000000000038000000F410000028000000BB
:20131000FFFFFFFF9017002004000000000000000000000054000000001000003C00000056
:1813300018000000000000000000000040130000080000000000000032
:1813480018000000000000000000000058130000080000000000000002
:18136000180000000000000000000000701300000800000000000000D2
:0813780001000000E8A30000E1
:0413800030BF7047C3
:041384000100000064
:0413880000000E0053
:04138C0000000F004E
:041390003200000027
:041394000100000054
:04139800B01600206B
:04139C00000200004B
:0413A0000000000049
:0413A400FDC901106E
:0413A8000000000041
:0413AC00000000003D
:0413B0000800000031
:0413B4000000230012
:0413B80048150020B4
:0413BC00010000002C
:0413C000C81600202B
:0413C400080000001D
:0413C8000000000021
:0413CC00000000001D
:0413D0000000000019
:0413D400080000000D
:0413D8000000000011
:0413DC00000000000D
:0413E0000100000008
:0413E400E0150020F0
:0413E80006000000FB
:0413EC0001000000FC
:0413F000B414002011
:0413F40000000000F5
:0413F80000000000F1
:0413FC0000020000EB
:0414000000000000E8
:0214040070472F
:021406002900BB
:021408000100E1
:02140A002500BB
:02140C002D00B1
:02140E002E00AE
:021410002F00AB
:021412000100D7
:0114140001D6
:081418000300000064A30000C2
:081420000000000000000000C4
:0414280000000100BF
:04142C0000000300B9
:0414300083C4011060
:041434003C14000064
:041438003C14000060
:04143C0000000000AC
:041440009000000018
:041444009000000014
:0414480000000000A0
:04144C00C81600209E
:0414500005980000FB
:041454002000000074
:041458003AA20000B4
:04145C0018A10000D3
:0414600009C30110AB
:041464006797000086
:0414680027980000C1
:04146C0095C801100E
:0414700097C8011008
:041474000000000074
:041478007BA3000052
:04147C00949F000039
:04148000AC9F00001D
:041484007C9F000049
:0214880008005A
:02148A00090057
:02148C0001005D
:02148E0000005C
:01149000015A
:041494000000000054
:041498000000000050
:04149C00000000004C
:0414A0000000000048
:0414A400279C000081
:0414A8007985000042
:0414AC007991000032
:0414B000C1880000EF
:0414B400238A000087
:0414B8005980000057
:0414BC009572000025
:0414C000A9990000E6
:0414C400ED780000BF
:0414C8000DC801103A
:0414CC001DC8011026
:0414D0000800000010
:0414D40024000000F0
:0414D80018000000F8
:0414DC0028000000E4
:0414E00020000000E8
:0414E4003C000000C8
:0414E8000C000000F4
:0414EC0034000000C8
:2014F00021B1C968814201D1012070470020704738B5054608F063FB2C680CB121682960A4
:2015100008F07EFC204632BDF8B506460F46346800201546386034B908F051FB376095B1E9
:20153000012129700FE005B1287008F048FB00E0246821680029FBD1BC4203D108F060FC58
:201550000020F2BD276008F05BFC0120F2BDF8B50C68054608F033FB0026074634B100F02C
:2015700009F800B126462468002CF8D101F083F83046F2BD21462846B2E700213022DFF873
:20159000340C4A43104490F82F20130603D5491C0829F3D3002070472DE9F8438046894639
:2015B000164600273021DFF80C0C7943441804F12C05B5F90000484508D1214600F035F981
:2015D00020B1300008D0E878304205D17F1C082FE8D30020BDE8F2832046FBE738B5042852
:2015F0001BD1DFF8E04A04F1E405284608F00BF998B1284608F0D9FADFF8BC1B0A68504371
:20161000B0F5967F09D2284608F0D5FA052007F0A9FA0120E07701F003F9002032BD70B598
:2016300000F026FADFF8945B064695F8340020EA040485F834400024286820B19C3008F06B
:20165000E2F800B10124686820B19C3008F0DBF804431FD195F83400002808BF002C19D195
:20167000A86AD0B190F820108A0707D5C46900F032FBA86A00220221A04708E0446900F095
:201690002AFBA86A00224FF400030021A0470020A86270BD304601F04FBD70BDF8B50023CC
:2016B0009E460AB94FF0010E002600291CBF8D6A002D6FF05047DFF804CB19D0446ABCB137
:2016D000C968C368994207D0DCF8003099420CBFDCF80860DCF80C60A408A4EB9504A61B31
:2016F000BE4229DA06F18056B6F1805F24D90123002A1CBF546A002C1BD0816AC9B1D268EA
:20171000C0680026904207D0DCF8000082420CBFDCF80860DCF80C60C6EB9406A6EB910670
:20173000BE4209DA06F18056B6F1805F04D94FF0010E03EA0E00F2BD0020F2BD884201D321
:2017500000207047012901D101207047022070472DE9F047DFF86C790E46B96A8046FFF7B9
:20177000BFFE002400254FF0010948B1B86A90F82E003146FFF7E2FFA146040018BFBD6A02
:20179000786AB0B1D7F824A010E0514600F04DF850B19AF82E003146FFF7D0FF4FF0000962
:2017B00008B10CB955460446DAF800A0BAF1000FEBD1B9F1000F18BF022034D1002C18BF14
:2017D000002D2FD0B86A2E4686420CD1B96A00F02CF840B1B86A90F82F1041F0080180F8CF
:2017F0002F107E6A5EB1314600F01FF828B196F82F0040F0080086F82F003668F2E7DFF85C
:20181000BC0900F13201C0F82880C0F82C8004F001048A7842F001028A70AA8D02860C70A6
:20183000012000E00020BDE8F087404658E62DE9F04F8DB00446DDF85880DFF83C7B002060
:20185000787388F80000894693469A46FFF795FE050042D001F0F3FAA8853868A04205D182
:20187000387BC10744BF00F0FE003873DAF80000A8629BF80C0000F00F0002280CBFDBF8FF
:2018900008000020B9F1000F686222D009F19C0007F0B9FF002857D101F04AFA040021D1DB
:2018B000706AF8B101F049FA0A90B06A20B1726AB16A00F055F838B9B06A98B9726A6946C1
:2018D0002846FFF7EBFE68B1706A286075620120787328460DB0BDE8F08F012088F800005D
:2018F0000020F7E7787B0028F3D114B9746A00E024685CB3226800F032F80028F8D02068B9
:20191000286025600220E3E7787B0028E1D1746A24B100E0246820680028FBD19BF80C10A7
:2019300001F08F010229D4D12CB1002200F017F80028CED108E0B06A0028CAD0B16A002280
:2019500000F00EF80028C4D10220C7E79AF804104846FFF7FDFE0128D6D10420B8E72146D5
:2019700028469BE670B5002007F062FCDFF854670FF22D51002200F067FED6E9004507F04B
:20199000EBFE844231BF041B401E041B641C307EDFF8E859240BF46000281CBF697D012920
:2019B00003D0307CC002A0422BD20121317600206875DFF8CC0901680A0622D540F60900D6
:2019D00028800021687B696000F0AAFC6873287B00F0F000287308F0F2F8DFF8A8194A69C6
:2019F00022F002024A616FF002020A610D600B699C07FCD50A614A6942F002024A6108F0FC
:201A1000FFF90020C6E90000F06006F011FC287D20B9F16B01F1400008F0E5F8DFF8201CA8
:201A30000020086070BD10B500F022F8DFF858190A7814430C7008F0E3F9832010BD70B50C
:201A500000F016F80646DFF840090178012559B1027822EA04040470007820B90821DFF810
:201A7000E40B08F0C8F8832500F035F9284670BD044608F0A4B810B50446207B00F00F0007
:201A900002281DD101F059F9A168081ADFF83416C96B8008002914BFC96840F6C41101F5A5
:201AB0007A72824238BFB0F1405F09D2401ADFF808170A68B0FBF2F0012802D8012010BD14
:201AD000002010BDDFF8FC250146906A00B9704710B5906A90F82F00C3061CD5506AD0B1F5
:201AF000506A90F82F00C30615D4906AC068536ADC68A0420FD111B1012908D010BDBDE898
:201B100010404FF4004102F1440008F074B8916A11630020906210BD70B5DFF8A865746A51
:201B30000120FFF7CFFFB16A002944D1002C3BD0E068F16B884218BF4FF4806135D1A068A9
:201B5000FFF799FF050015D0306B98B90120FFF776FF83282FD1F06B783008F02CF806F1C4
:201B7000E4042946204608F022F82046BDE8704008F01FB8D4E90401DFF808285369034331
:201B900053610020D3680B43D360D061A0681060D0690028FCD006F12400FFF7A9FCB06207
:201BB0000020BDE870408DE7022106F14400BDE8704008F020B870BDDFF80805C16B8A687A
:201BD00001F12803506830B1984218BF0246F9D101E000207047507B10F00F0F02BF488D45
:201BF00040F609018842F4D1012070472DE97043DFF8B00BDFF8CC5407F0F2FC0446DFF8D6
:201C1000A80B01680668A86A06F4602668B1214089060AD5E862D0E9068949EA0403C0E93B
:201C300006834FF4005100F0DDF834400BD0DFF8EC0B81690C43846105F19400BDE8704395
:201C5000002107F0D8BFBDE8708370B507F0B7FFDFF8C84B0646A06910F4602F2FD0A5697C
:201C7000ED012D0EE80748BF002506D4A80748BF012502D4680748BF0225681D002140B24F
:201C900000F06CFEA169012205F1110082409143A16100F020F804EB8506F06838B154F8FF
:201CB0002500691DF56800224FF00063A847DFF8F81A086828B90220FFF7C1FE01E000F077
:201CD0000AF8A06930B1BDE870400021DFF8D40C07F091BF70BD304608F092B8F8B5DFF82B
:201CF000E45307F071FCAC6A002C024677D0100704D490075FD5286B00285CD10021A9629A
:201D1000D4E90401236A40F00A0632401A432262D4E906673243C4E90627DFF88C6AB26871
:201D30008243B2603268D4E904018A4332602146002205F13400FFF7E7FB022100F052F819
:201D5000286B00284BD0E168286BC268914246D1286B90F82F0094F82F10084310F0070046
:201D700018D0C10701D4810707D5286B90F82F1041F0010180F82F1005E0296B91F82F20D5
:201D9000104381F82F000022296B05F13400FFF7BBFB0DE0286BA8622A6BB368D2E90401B2
:201DB0000343B3602A6B3368D2E904010B43336000222A6313E0D4E9040102420FD0EC6214
:201DD000D4E90401236A02401A432262D4E906011043C4E906014FF4804100F003F8BDE822
:201DF000F14099E605F1440007F005BFB548B0F93810B0F93A00814204BF0120FFF71FBEE3
:201E100070470720FFF70BBCF8B506460F46D6F868C014461D46BCF1000F18BFE047D6E99D
:201E3000180104400D400020854208BF844217D0802239463046FFF7AFFBC6E91C4538B15D
:201E5000D0E90623A243AB43C0E90623B16E41600020B06606F14000BDE8F24007F0C3BE6F
:201E7000F1BD704780B507F0C4FE964A0146D06B126CBDE80840104780B592480FF20D526C
:201E9000016C914206D10120FFF7CDFDBDE8024000F0CBBCBDE804400421443007F0ABBEFA
:201EB00070B584B007F090FB864D0FF2E1410446286C884222D10022DFF8841BDFF85C6972
:201ED00005F1780007F081FE0120FFF7ACFD012068764FF6FF710020A876B08B884208D17E
:201EF0000221ADF80010684607F080F8BDF80800B083FFF761FE08B9FFF70EFEDFF83C0CB6
:201F1000044203D04FF00051FFF76CFF7FBD80B507F05AFB800707D5BDE804404FF480518A
:201F3000DFF8200707F067BE01BD10B5654C0146E06B4268506838B1012908BF06F068FF18
:201F5000E06B416848688047E06B42689068002804BFD168002914D0DFF8901B08680028CE
:201F7000FAD000230B60906800B18047E06B4068C06800B18047BDE81040DFF8B00C07F077
:201F900035B810BD70B54F4D6C6B002C7DD0A168202000291CBFC2B2002A7CD00A8840F667
:201FB00003039A421FBF40F604039A424968401EEFD16BE000224FF0804304E000224FF0B5
:201FD000805300E0002394F82F00010706D594F82F0010F0070F18BF43F08073B4F92C10C6
:201FF000E0686668B04707F0EAFD0646688F401CC0F30B0068870020696B81F82F0005F108
:202010003400FFF775FAFFF766FEB5F93A00B5F93810884239D1E26892F8C210052001B18E
:202030000720FFF7FCFA6548E3680268934208BF426893F8C200002100B91968002583F88D
:20205000C2504AB192F8C20010B182F8C25003E01068884228BF014619B9BDE8704001202F
:20207000EDE411F1010F10D053480268E068B1FBF2F1012998BF0121783007F098FDE06892
:20209000BDE87040783007F094BD70BDE0681822283004F00FFD226A0020206260680028C6
:2020B000A1D094F82F1001F00701012906D002293FF480AF04293FF481AF83E700224FF0F3
:2020D000005380E7C821002038B50D46A807DFF8604B18D5FFF756FF606B25F0020510B1DC
:2020F00045F0020109E0680702D4606A00285FD004F1E40007F05FFD042104F14400BDE81A
:20211000344007F078BD680752D5012084F82000042006F027FD07F01FFBC4E90001606AF5
:2021300078B1C568E06B002818BFA84208D095F82000410704D5EB69002204212846984777
:20215000E563E06B4168DFF8EC0A0A780260022006F008FD112004F0B1FA0120A076E06B13
:20217000017C002919BF207E00280E2004F0A6FAE06B844A40688168002904BFC068002863
:2021900004D00021D161DFF8A40B106040F2FF70DFF8AC14086000219161DFF8B00C50611B
:2021B0000FF21D0020641920BDE8324007F009BD31BD00004820002040240020AC23002077
:2021D0002DE9F0430546880085B040F195800020FFF7ABFE6B4EDFF8AC0BDFF8549A674FD7
:2021F0000021F161306040F60A08012007F020F80FF29910C9F84000A7F800800020788072
:202210000021387B00F0F00038737960787B00F087F87873AA681446618099F8181009B169
:20223000687CA0B1108840F60201884218BFB0F5C15F05D1218A4FF60F400140218204E045
:20225000218B4FF60F4001402183002068746946104604F095F8684607F006FB40F60401E6
:2022700040F60302606800281CBF0388434518BF934244D08B4218BF0446F3D13FE0288DEF
:20229000A8B100216985E96205F134004278017802F0F00201F0F00142F001020170427000
:2022B00005F128007860787B00F0F00078734FF6FF30A9680A8A02400A82F0690028FCD026
:2022D0000021F16199F81F00012806D105F0CEFF0028FBD007F083FC0CE0012006F082FD1E
:2022F000012807D0607B00F01BF860730FF23D00C9F84000A868306005B0BDE8F0836760AA
:20231000607B00F0F0006073D9F8240080680088904218BF8842B2D10020C9E90000C6E745
:2023300000F0F00040F0010070470000DFF8202B114200D17047012010B506F053FD012873
:20235000DFF8EC4806D10FF245010C4821640D49086010BDDFF8582C10683221B1FBF0F12D
:20237000012998BF0121E434204607F020FC2046BDE8104007F01DBCD4230020042400208F
:2023900000000440001004401A2400202DE9F84F07460C466004DFF898681FD507F00FFC0A
:2023B000F56A0146A5B12F6AB80711D400202862084607F025FD6868002818BF002F0AD0EB
:2023D000B5F92C10E8686D683A460023A84702E0084607F015FD24F4804427E1A0006FF42C
:2023F000807940F6020557D596F8200028B1042006F0F6F9002086F8200007F0E0FB804685
:20241000B8680188A94218BFB1F5C15F00F026F9D6E900AB0020834508BF824521D0042077
:2024300006F0E0FCE8B1D6E9005107F095F9854231BF451B401E451B6D1C788AF96800EBE0
:2024500015308842F86002D209184908F96040F2D171F868A0F5FA70884224BF40F6C411DB
:20247000F96000F0F7FCFFF7A7FB58B1BD6900F0EFF8A847706A18B1192007F0A4FB01E030
:2024900044F002047D6900224FF0806300213846A84724F00054C9E0A00709D5FFF772FD3F
:2024B000706B002824F0020401D044F00204BDE060051CD507F083FB756A074695B1F06BAF
:2024D00010B1783007F077FBE868F06300F0D3F807F042F9B0604FF400610FF2A110306490
:2024F00000F006FB0020707724F480649EE020073ED5707F012802D10021717735E0B06AFD
:2025100098BB0120F0760021DFF8AC0B71763064FFF728FA022006F063F9112004F070F88E
:20253000F16B087C10B90E2004F06AF8F07F012804D10021F177052006F052F90020F0767C
:202550003077DFF8780B0178012904D100220270042100F0CDFAB6F93A10B6F93820022060
:20257000914208BF0720FFF75AF824F008045DE0A0040FD5F56A002D1CBF6868002806D028
:20259000B5F92C10E8686D6800222023A84724F400544BE0E00438D5FFF70EFB20B1D7F8A1
:2025B00018C000F055F8E0470022DFF8941400F04BF80020B07701207076B8680188A94219
:2025D00018BFB1F5C15F00F049F800207874B56807F0C2F8DFF86825F36B17680421BB42E0
:2025F00008BF00214DB1854231BF451B401E451B6D1C02F108002D0B45500020B06024F477
:202610008054192007F0DFFA10E020040ED5B06A816848880028FAD0B16A88684188012913
:20263000F5D0192007F0CFFA24F4004434B1214606F14400BDE8F44F07F0DDBABDE8F18F4E
:20265000000004600C22002006F1780007F0BDBA00224FF0007349463846704705D1028AE1
:202670002D2161F3091202827047028B2D2161F3091202837047384607F0C2BBF0B50446EB
:20269000080585B07BD5DFF8A865002070760120B077F06B90F820104A0703D5C3690022DC
:2026B000042198470022DFF8F81ADFF8F85AFFF7CBFFDFF8E40B3064F06B406881680029A3
:2026D00004BFC068002804D00021E961DFF85C0628600120FFF729FC0020E86140F60202F8
:2026F000DFF8A00628600020A16848800888904218BFB0F5C15F05D10A8A4FF60F40024096
:202710000A8204E00A8B4FF60F4002400A830120607440F6040240F6030340F60A0C4868D8
:2027300078B3078867451CBF9F42974229D00146F5E7208DA8B100226285E26204F13400F6
:202750004378027803F0F00302F0F00243F001030270437004F128004860487B00F0F000A6
:2027700048736946A06803F00BFE684607F07CF8E8690028FCD00021E961A068286005B0CD
:20279000F0BD00204860487BFFF7CAFD4873706A80680088984218BF9042CAD10020B060E1
:2027B000DFE7000020000E000C10044038B5DFF88044A16A61BB606A78B3617E29B1012037
:2027D000FFF731F9BDE832402FE0A07E28BB07F0F6F90546606A8068FFF74DF9E17E21B152
:2027F000DFF8D828012010700DE040B1E4340146204607F0DCF9204607F0DBF903E0A07FAF
:2028100008B900F00DF82846BDE8324007F0F8BABDE832400020FFF755B931BDE423002074
:20283000042104F1440007F0E6B9192007F0CBB930B585B003F046FADFF8880BDFF8884B7F
:202850000168DFF8EC5341F002010160684607F01BF8A078DFF8741B02906A4605F14400A2
:2028700005F022FD684606F0DFFF2178DFF8D42B019100208DF808006B46192105F17800AB
:2028900005F002FC684606F0FFFFE078DFF8B81B02906A4605F1940005F006FD684606F029
:2028B000C3FF01208DF808006B466078DFF89C2B01901A2105F1C80005F0E6FB00230022CC
:2028D000DFF88C1B05F1E40005F022FADFF8E807DFF8802B28640023042105F5847006F07F
:2028F00099FBDFF8740B4FF6FF7181830021C177C5E9001129766983E96185F82010052066
:2029100028740020DFF8541B08704FF4FA718C488160C16005B030BD10B5818B4FF6FF7280
:20293000914209D00024012202FA04F3194206D1641C64B20F2CF7DB6FF0010010BD9943C3
:20295000818304F10C00DFF8C81B0B6882401A430A600220FFF767F8204610BD70B5064691
:202970000C4607F02CF9DFF8F01A0546C87F420702D58A7F964214D001228B8B02FA06F056
:202990000343DFF88C0B8B830C36016802FA06F621EA06060660006818B914B10220FFF72F
:2029B0004EF8C8E35C2200202DE9F041DFF82C6C0546706A0C460027844290461AD1FEF7A8
:2029D000D9FD18B394F82F0040F0040084F82F007F1C06F12400FEF78BFD0022214606F1F9
:2029F0003400FEF791FD746A5FEA0800E7D13846BDE8F081716A31B1086820B10A68A24241
:202A100001D00968F7E70C4600E02468002CEED02168FEF7B0FD0028F7D0216891F82F0083
:202A300040F0040081F82F0006F134000A6822607F1C0022FEF768FD5FEA0800E8D1D6E7AD
:202A5000ED1C00002DE9F0478246894602F001040327550807F0B3F819F1010F05F0010544
:202A70008046734E08D1B16A5046FEF739FD00280CBF706AB06A04E0002249465046FEF703
:202A90008BFD70B390F82F100A0629D5B16A884215D190F82F100122A240114380F82F1004
:202AB000002C14BFDFF8380BDFF8380B06F09EFAA5B1716A2A465046FFF776FF0EE001466E
:202AD0002A465046FFF770FF50B106F1E40007F072F8B07E10B9022100F00AF8832700E0A8
:202AF000042700F0B7F93846BDE8F0871C10044006F1440007F07FB870B504460D4607F0CF
:202B10005EF80646DFF8D40AC16B8C4201D0032070BD407E01280DD1284606F067FA04465F
:202B3000FFF7D9F804F0FF04012C01D1812070BD022070BDFFF7CFF8012070BD020000405E
:202B5000AC230020F0B50646DFF89C0A8BB015460029006818BF002D1C4663D00A78D040B6
:202B7000C0075FD571602846002103F075FCB56007F025F8DFF8747A0546387D02284FDA45
:202B900008B9FFF755FE387DDFF8641A41F82060401C387500F008FB34B903A80FF6882116
:202BB0001C2203F087FF03AC2068DFF8481A30600A466068F0600B46207C3074A0693062BA
:202BD00001207074608A7082E06800B10246B261606900B10146F161A06800B103467361C7
:202BF000A02106F1280004F0E9F9002106F1400006F024F9684606F0A6FF02966B460022F0
:202C1000DFF8F41906F1780005F082F86B460022DFF8E81906F19C0005F07AF8304602E0E5
:202C300000F0C2FA00200BB0F0BD000001000706C8210020D0210840F8B5DFF8B059044629
:202C5000287D002871D0DFF89469B6F93800B6F93A10884211D000F06BF828B9B16A204642
:202C7000FEF73EFC48B1B06A38B1B0F92C1000224FF0E043204600F0A4F906F0A0FF0746DB
:202C9000DFF86C0901688C4207BF0021016000214160287D401E2875C0B288BB707EF463FD
:202CB00001280FD1FEF7CBFE0220FEF7C8FEFFF7E2FC4FF0FF3104F1400006F089FD06F076
:202CD0007EFF074606F1440006F08FFF06F1780006F073FF06F1940006F087FF06F1C800BE
:202CF00006F06BFF06F1E40006F05DFF06F5847006F0CEFA207C012804BF0E2003F080FC65
:202D1000F06BA04204BF0020F063FFF7B4FC04F1400006F066FF04F1780006F044FF04F15F
:202D30009C00BDE8F24006F03EBFF1BD5100070606F124012046FEF70ABC70B506F03FFF7B
:202D5000DFF89828517E29B1DFF8B428146807F057F814E007F054F806F0FEFC10F5003052
:202D7000DFF8A028DFF8846841F10001A2FB004502FB01553169002024184D412C4620461D
:202D900070BD000001010E042DE9F04782B082460F4691461D4606F012FF8046FEF7EDFB62
:202DB000040046D00AF1780006F005FF00F047F83087A760202104F12E0787F80090656050
:202DD000308FA085C4F80CA0DDE90A52DFF8380828401140C4E904016A4600207870C4E98E
:202DF0000600214606F12400FEF78EFB08B30AF1C000A18D018000218170787840F08000E6
:202E100078709DF80000012809D1317F00291CBF707E002803D0012100207177307700F0C4
:202E300019F89DF8000008B1FFF7C0FCB4F92C0003E000F00FF86FF00100BDE8F687DFF865
:202E50009C67308F401CC0F30B0070470A00004004000020404606F0D3BF2DE9FE4FDFF819
:202E7000906780460F4614469A4606F0A8FE31688146884508BF716801A8029400903A463E
:202E9000029B4046FEF7D3FC040006F1320000900ED18178C6F8288041F00401817000F029
:202EB0003BFA9DF8040002285FD16FF002007DE008F1780006F07FFEDFF82057A08D28870E
:202ED000A76004F12E0702980179DFF83C073970C4F804A0C4F80C80DDE90CAB20210AEA80
:202EF00000000BEA0101C4E9040100207870C4E9060002984179012903D1787840F01000DC
:202F1000787000F009FA0098C178042905D10278B6F93010F06A00F01AF906F050FE814621
:202F30000098C078022808F1C00602D100F042F829E0012809D105F1E40006F03CFE00F0C5
:202F500039F8A86AF8B900F0E7F90098C078002818BF042826D10DF10502214605F1240025
:202F7000FEF7D2FA20B900F0D7F96FF001001DE0A08D30800021787840F080007870B170E3
:202F90009DF8050010B900F0C7F90DE0297F00291CBF687E002803D00121697700202877D3
:202FB00000F0BAF9FFF702FCB4F92C00BDE8FE8F40240020787840F0800078700021B17011
:202FD00070472DE9F0410C46002C054616461F4601D500201DE006F00AFE80468022214699
:202FF0002846FEF7D9FA040003D094F82F00010602D400F042F80BE094F82F0010F00F0F2E
:2030100009D000F03AF894F82F0010F00F0FFAD1022000212FE0D4E9060146F00A06304035
:2030300039400022914208BF904210D000F025F8D4E9060130403940C5E91C01D4E906232E
:2030500022EA000023EA0101C4E9060111E06168DFF8B805814202D06168A9666060C5E968
:20307000186700F00AF84FF0FF3105F1400006F0AFFBD5E91C01BDE8F081404606F0BCBEA3
:20309000DCB500F01DF808BFDFF880352046FFF77BFE08E0DCB500F013F808BFDFF86C35AF
:2030B0002046FFF7DAFE0146204602B0BDE8D04000224FF0E04384E7D92000001B24002071
:2030D000DDE906670446CDE900671800704770B5FEF7CEFC0546DFF81415DFF800650120EB
:2030F000487504F19C0006F066FD00F029F804BF707E00280CD1DFF8F81491F8340038B1C9
:2031100000F052F80720FEF78AFA06F058FD054600F016F80CD104F1780006F04CFD012087
:20313000FEF78DFC707E012805D10121317702E0012084F8C2002846BDE8704006F060BE32
:20315000B6F93A00B6F93810884270477AE442F0020277E40FF2D0411C2203F0ABBC00E085
:2031700000BF0022C8E470B5DFF87014CA6B90426FF07F0412D1487E80B106F020FD054611
:20319000DFF88C0405F032FF064600F00DF806F0FF00012802D13602301670BD204670BD22
:2031B0001F1F000000100440284606F029BE00002DE9F0410E461446832506F000FD032E61
:2031D0008046DFF8187465D8DFE806F002071114B86A50B1B96A888D05E09F48808B4FF617
:2031F000FF71884201D0208055E0802553E0787E207050E024685021204603F0DFFE0021FD
:20321000DFF8EC23080152F82130235004F10C0E0C234B431344491C1E7E0EF80060261DD4
:20323000D3F814C046F800C001291B699C4404F1080343F800C0E5DDB86AA0B1BA6AD368C4
:203250000801491C235049B2BA6A92F82E3004F10C021354BA6A536A221D1350BA6A936A68
:2032700004F108021350786AA8B1042913DC0A01C368A35004F10C0790F82E30BB54271D1B
:20329000436ABB5004F10807836ABB50491C006849B2E9E7032536E19D23000080B58022FC
:2032B000FEF77AF900B1806802BD2DE9F8430446CA480D46417E807F01431E4608BF6FF0B2
:2032D000010027D00A2129806A60DFF88C814046FFF722FB0746781F03281AD2AF7006F0BB
:2032F0006EFC8146284605F081FE054600F014F805F0FF05012D06D108EB870040F8086C40
:2033100040F8144C05E001213846FFF727FB6FF001073846BDE8F283484606F071BD2DE9A1
:20333000F8430446AD480E46417E807F0143904608BF6FF0010038D0474F3846FFF7ECFAB8
:203350000546681F03282FD206F039FC2A02814602F4706216434FF6FC703040AD490843BE
:2033700005F044FE00F0FF00012815D1F0040CD5A94901230A6805F10C0083409A430A609F
:20339000BD77F87F40F00400F87707EB850040F8144C40F8088C05E001212846FFF7DEFAB1
:2033B0006FF00105FFF7B8FF2846BDE8F28310B54FF6FC742140BDE81040984B0022194332
:2033D000FFF79ABB00200940C9A30000751E000070B582480C46417E807F014301D10120F4
:2033F00070BD1D48C17F4A0707D5837F9C4204D101F0FB01C1770021817706F0E0FB0546AF
:2034100001212046FFF7AAFA4FF6FC7000EA042040F0816040F0010005F0E8FD06467E488D
:20343000012201680C3402FA04F421EA04040460FFF7BAFE06F0FF06012E01D1812070BDCD
:20345000022070BDB11E00005B1C0000FD1B0000891E0000ED150000E42300201A24002081
:203470002DE9F04107460C46154606F0A8FB5B4EB17E8046707E0143F07E0143062C41D895
:20349000DFE804F004070D10131F2D002868386036E001207874F8686030F86030E02868A7
:2034B00078822DE0286830742AE0286818B98020FEF7B9FA24E0012824D18020FEF7BFFA9E
:2034D0001EE0002904BF706A00280DD12968192006F07DFB29681A2006F079FB10E000298C
:2034F00004BF706A002801D000250CE0296806F1440006F082FB296806F1940006F07DFB4C
:20351000832500E00325FFF7A5FC2846BDE8F0810C1004402DE9F84F0E46814630684FEA27
:20353000900A3F48824502D2307A022801D003202DE006F044FB2E4C8046606800278145C0
:2035500008BF012787F0010054F82050B9F1000F04F1320B04D009F19C0006F054F958B98F
:20357000BDB105F19C0006F04EF928B902212846FEF7EEF805000DD19BF80200C4F82890C5
:2035900040F002008BF80200FFF764FC0020BDE8F28F02250C204743E01931680161317A4C
:2035B000017620480168BAFBF1F1012998BF012109F19C0006F0FBFA09F19C0006F0F9FA79
:2035D000FFF748FC012D06D19BF80020B4F93010E06AFFF7BCFD8320D9E70000C821002097
:2035F0000100020401000104D421084004240020AC230020731E0000FD1D0000131E00005E
:203610000430044000093D00FDEFFF9F191E000001000304010003060810044001000406A2
:2036300041420F0040240020FFFFFFFFC4090000000000000000000001003A01000000005F
:20365000000000002DE9FE4FE54980460122A1F130000260DF480768002FFCD0DE4ADF4ED6
:20367000C027E048E04B17603268920808D2324652F8042C03F14104120C42F0F00222707C
:203690004FF0000A8346C1F800A0DFF864C3DBF80810D64D0191880E43D2480E41D380205C
:2036B00018744FF6D802A3F8512018702868C0F30464162CA8BF203C1F460F3F387800F0B8
:2036D0001F001628A8BF2038844223D0624602F1980EDA4ACEF800A0261A022E05DC16F1E2
:2036F000020FB8BF6FF0010600E002263018166800F01F06844246F4F856A7F866604FF0F7
:2037100001061660E8D11068374617601068CEF80060106828460068C0F30420162808DB13
:2037300006E0A5F1D0000068C0F30460162800DB203800EB2170401C162805DA10F10A0F2E
:20375000B8BF6FF0090000E01520DE4F00F01F0040F4F850A3F85900386880083ABFEA4866
:20377000C0F800A041F04061019E6246A5F13804C80E8F0E80F0010000F00100106087F03A
:20379000010000F0010090602068C0F38367C0F38F21B00C23D2304640F3072000280BD526
:2037B00042425046490805D17F0806BF0127391C4FF6FF71521EF5D1002810DD4FF6FF7239
:2037D000490041F001018A4207D27F0047F001070F2F92BF01210F27111C401EF0D141EA9C
:2037F0000741182004F0AEFF2068D24E2768C94CA6F10409C0F3870107F0030041EA002127
:20381000D9F8040040F2FF3253468FB22C21466800972746A7F14000B0470C3D2868C0F32C
:203830000D011C2004F08EFFB84955F8080C014000F07C400143142004F084FF55F80C1CFA
:2038500001F47C000904090C0143102004F07AFF624955F8042C0968C2F30350C2F3034546
:20387000490813D2DBF800100B0510EB237003D41028A8BF0F2000E05046090415EB2175C3
:2038900003D4102DA8BF0F2500E0554645EA001502F47F4002F0FF01B8F1220F40EA0540BA
:2038B00041EA000124BF02F0804211430C2004F049FF974DB8F1220F32BF01202868C0F366
:2038D0000070B8F1220F4FEA400040F0200084F8090126BF2868C0F3407001208E4EB8F1C1
:2038F000200F40F0100084F8090138BF514606D33168C80C00F44070C1F384510143282036
:2039100004F020FFB8F1200F26BF3068C0F301505046B8F1220F4FEA400040F0600084F836
:203930000C0126BF2868C0F3C0605046B8F1220F4FEAC00040F0800084F8010126BF286816
:20395000C0F345505046B8F1200F4FEA800040F47C40A4F89C0138BF70490AD33068010396
:203970008A15920501F47C1100F00F00114341EA0031082004F0E6FE4FF48000A5F1D001A6
:203990002060674A886D40F21E236FF31F40834216D90868030E13F00F0F03F00F01C0F3B1
:2039B000034018BF491E072805D006280EBF0720801C00F00F0041EA0011A2F1080001706D
:2039D000DDF804C0CCF381477F1E13D07F1E3BD036E0C0469402224300600C40B03F00508D
:2039F00040100940AC3F005015620840881300500000204328460068810C21D24FF480417C
:203A10002160D2F80210430AC0F3033703F0800321F08F010B4347EA0301C2F80210D2F8CF
:203A30000130060A66F30303C2F80130116800F0E70721F0E70147EA010004E02C200940F0
:203A50004FF00040224610603B480068C0F3C0070FB94020A0624FF4007020642868402742
:203A7000C0F3C14040F0300084F8C800CCF3815050B3401E03D0401E1FD002211EE001208B
:203A900005F0B0F906460420314603F03DFE042005F0A8F98642FAD12248066826F07F4069
:203AB00005F030F8D9F81400036807214FF06022300E98474FF4806020600321042003F0A5
:203AD00023FE08E0000009400420012103F01CFE154805F017F8203D2868144947F618062B
:203AF00000F03F0084F8CB0F144B0E80D9F800201868D1680220884711480D4D076001216D
:203B10002960BDE8FE8FC04694042A43FCFCFC008C13005040A00C409813005000803F40C6
:203B30000A600840A83F0050BD37860070B00C4094046042A4010010B03F00502C200940E3
:203B500000600C4038B5A94D2C68BCB9202005F0AEF804462C600CB906F05BF80025256054
:203B7000A560A348E560A34B60616820236105F09EF808B180F86450A0612577204638BDDD
:203B900010B5044654F80C0C401C44F80C0CFFF7D9FF016844F8101CA4F120030360002216
:203BB00044F8082C8168491E8160A06910BD10B5041C01D0FFF7E4FF204600F0CCF910BD07
:203BD00070B516460D460446FFF7BCFF44F85C6C603C256081682034491C8160204603F005
:203BF000C3FD2046FFF7E3FF70BD2DE9F04F4FF00109ADF11C0D00F1400BC84602920F46F2
:203C1000CDF80C80DFF85CA2CDF800B00025CDF8108050F8206CCDF8148009E0580838BF12
:203C30004FF000090098F668FF6808B100680090B74208D0384602F079FC0146304602F0B9
:203C500075FC814202D15FEA080057D11EB9FCF7B9FF002402E0306850F8044C1FB9FCF751
:203C7000B1FF002102E0386850F8041CA24508D0504602F05BFC0246204602F057FC824224
:203C900002D15FEA08000DD18A4508D0504602F04DFC0246084602F049FC824210D15FEADF
:203CB00008000DD0A14208D0084602F03FFC0146204602F03BFC814265D1B8F1000F62D020
:203CD000A24508D0504602F031FC0146204602F02DFC814202D1B8F1000F3ED1012D12D12A
:203CF000A448B84207D002F021FC0146384602F01DFC814207D1B8F1000F04D00298C0F89F
:203D100000B0404640E035F001003CD19A48A04207D002F00BFC0146204602F007FC814211
:203D300002D1B8F1000F0DD19448A04207D002F0FDFB0146204602F0F9FB814223D1B8F198
:203D5000000F20D0684601A932463B46FDF75EF8C8B10DB9DDF804B0D0E7B868B16880F091
:203D7000030200F003030A4012F0030F0BD181F0030108406D1C10F0030F3FF44FAFB9F1CB
:203D9000010F3FF44BAF002007B0BDE8F08F08B500F0D2F808BD05F03CBF10B56038044608
:203DB000FFF7D0FE806928B1844204BF002180F8641002D0204605F037FC10BD98B5FFF767
:203DD000C1FE0446276817B9002000F0C4F8A0680121401CA06007F12004B961204603F08A
:203DF000C3FC2046FFF7E3FE98BDC046B0170020A73D00009F3D000098B5FFF7A3FE026867
:203E10005169491E5161576902F16004AFB9116901600027176197697FB9506850B101468E
:203E30002046884706E0FFF7ABFE2046FFF7B5FFFFF7C4FF2046FFF7B0FF98BDFFF7DCFFBE
:203E500003F0BBFC08B5FFF77DFE0146C86810B90869804702E00022CA60804705F0D9FE41
:203E700008BDC046ECA200002DE9FE4F0446206AE769D4F82490D4F828800290FFF762FE76
:203E90000546A4F120062046FFF77AFE54F8180CE860FFF7D7FFBDE8FE8FFFF771FE2C6889
:203EB000B44210D020692860FFF7A6FF07E0FFF767FE04F1200000F04EF8FFF79DFF2868C1
:203ED00020612C6001E0FFF797FFDFF82CA10025AFB104F120002E46019006FB09F0029980
:203EF00058F80000091801986A468B46FFF77DFEC0B9DA4508BF0125761C7F1EEDD1012D16
:203F100007D004F1200000F026F8FFF775FFBDE8FE8F042000F034F804F031FA374A514684
:203F3000FFF74EFEFFF74AFFBDE8FE8FFFF764FFFFF762FF03F041FC08B5FFF703FE0146E3
:203F5000C86810B94869804702E00022CA60804705F05FFE08BD10B50446FFF7F3FD002CB3
:203F70000CBF416954F8141CC16001210177FFF7E3FF10BD9CA30000F8A2000004A3000060
:203F900098B5044604F1600004F091FE071C12D1FFF7D8FD806940B190F8641029B9042CE9
:203FB0009CBF012180F8641000D90020074610B90020FFF7D0FF00243C607C60FFF7C2FD43
:203FD0000169B9604069F8607C6108A3BC6193E8060007F1600007F1200484E8060098BDEC
:203FF00008B5FFF7AFFD4068203008BD54492020432B2B0000C046C028A300007F8300008C
:20401000BA482DE9F84F0025B94CB749056094F8E200002800F06381012800F02F81B54E6C
:2040300002283CD0032840F05A8151F8250CD4F8B8100029A0F5C060C4F8D400B8BF494286
:204050000028B8BF4042814226DA4FF08057D7F8A4014568B4F8BC0030214FF47F4208234D
:2040700000903046A847D7F8A4014568B4F8C00004214FF4F802122300903046A847D7F853
:20409000A401B4F8D070456820214FF440620A2330460097A847012584F8D8501AE151F875
:2040B000258C05F0AAFC2F4600B901273946924F38680028FCD0B146012609F10409D9F864
:2040D0002CA03E6009B105F09EFCCAF30720C4F8BC0005F092FCAA4600B9B2463B68002BCF
:2040F000FCD0D9F800B0BAF1000F3E6001D005F08AFCCBF38440C4F8C00005F07EFCAA4662
:2041100000B9B2463B68002BFCD0D9F81C90BAF1000F3E6001D005F076FCC9F38120C4F81E
:20413000D000B8F5C061C4F8B81000F09C8094F8D80068B9C4F8D410D4F8C000C4F8C8000C
:20415000D4F8BC70C4F8C470D4F8D030C4F8CC30D4F8D410D4F8BC30002954BF02206FF0BE
:20417000010004F1C802176801EB41014018411000EB917107EBA1001060D4F8C810C4F8C9
:20419000C43000291CDD1E293CDDD4F8CC0030B93429B4BF15391E21C4F8C81025E02A29CF
:2041B000BABFD4F8C8000B381E20C4F8C800D4F8C4003F28B4BF401C3F20C4F8C4001FE039
:2041D000D4F8CC00032812D011F10B0FC6BFD4F8C8000B30301CC4F8C800D4F8C400002832
:2041F000C4BF401E051CC4F8C450032508E011F1150FC6BFD4F8C8001530301CC4F8C80079
:20421000C4F8CC504FF08057D7F8A401B4F8C43030214FF47F424568364800930823A8475F
:20423000D7F8A40104214FF400321123456831480096A847B4F8C860D7F8A40104214FF4D1
:20425000F802122345682B480096A847D7F8A40120214FF440620A23B4F8CC6045682548C1
:204270000096A84701E084F8D85040F2FF50404502D8801C40452DD208202EE051F8251C64
:204290001E4F4BF2F5204843060A3868C0F3814001280AD104F096FE03F0ACFF05F0B9FBCD
:2042B0003111C010484306EBE03694F8E50030B91348006820F07F408019460801E084F81A
:2042D000E5501048310C0660012741600E4D8760287808B90B2000E0052084F8E40001F0B1
:2042F0009FF9BDE8F88FC0462D400C402C500C40B812002000A00C4000800C40B43F00507E
:20431000102009403C600C4095A100002DE9F04F08270126ADF1440DADF800706846ADF8F4
:20433000026004F08DF9A94C9DF80400E070029804F13C0500216061284605F059FDA4495B
:2043500041F28832042304F58A70E56103F028FD00251F200621A56004F058F95020ADF8FE
:204370001E008DF83A60ADF81C5031468DF83B600DF13A02ADF822504FF44870ADF8200037
:204390004FF47A70ADF8240040F2053000F034F940F20630022107AA00F02EF94FF442704B
:2043B0001E2104F1AC0200F027F940F20730072104F12C0200F020F94FF4447031460DF1D2
:2043D0003B0200F019F940F2113002210DF11E0200F012F940F21230022108AA00F00CF9A1
:2043F00040F2133002210DF1220200F005F94FF44570022109AA00F0FFF87649032003F07B
:204410008FFF0620A02104F001F90720A02104F0FDF83846A02104F0F9F80920A02104F056
:20443000F5F8A8468DF83C60B1468DF83D604FF48160CDF8188004218DF83E8006AA8DF839
:204450003F9004F0C9F84FF4806031460FAA04F0C3F840F2024031460DF13D0204F0BCF8F6
:2044700040F2034031460DF13E0204F0B5F840F2064031460DF13F0204F0AEF8032004F082
:20449000FDF9042004F0FAF95348544A132103F057FE4FF0040A524DADF80C702878ADF804
:2044B0000EA08000049003A804F0CAF800280CBF059B43464B4EB36083B12A7842B14FF6F3
:2044D000FF711B1F404623F8041F521E9870FAD1454A06F17800112103F032FE43490DF13E
:2044F0002600142202F0E6FA8DF84080404614210DF1260201F0F0FD484610AA014601F0FA
:20451000EBFD0220494610AA01F0E6FD032014210DF1260201F0E0FD06F1540B41462422F5
:204530003B46584605F060FC06F13807414638465A4605F055FC04F12800F760AF7870606F
:2045500027BB04F1240095F801B0EE786862182004F03EFE071C19D05146424605F024F93D
:20457000584604F0A7FD38727E724046B87205F14803FB6005F158023A6105F12001796133
:2045900004F036FE1A4A394603F006FF0C2004F01FFE071C0AD04946524605F0F6F934345B
:2045B000BC6004F025FE394604F0F0FB4846102103F0BEFF0220102103F0BAFF0D4942F262
:2045D0002F0004F067FC11B0BDE8F08F080200207D970000639B0000EC0E002040A3000027
:2045F000640A00201C1000204CA30000B0A100006F9B0000479B0000F8B5A0F201351746D3
:204610000E46022D40F214818A4A8B498B4B2D1F0F2D04D9143D4AD0AD1E1CD011E0DFE883
:2046300015F0C300BC00F400E400B300AB000701A2009A00100010009200880079006F004A
:204650006300282880F2F480022E40F0F180398803F0DCFFF8BD012E40F0EA8015462879D7
:20467000012800F0E58051793878507181B9002800F0DE809078012800F0A980042800F05B
:20469000A680062800F0A380052800F0A080F8BD3878002840F0CC809078032800F0A28018
:2046B000072800F09F80052800F09C80F8BD012E40F0BE803878012840F0BA80154605F18D
:2046D000F00005F0E9F8002840F0B2802C46002004F13E0102F034FC002840F0A98004F11C
:2046F000CC0005F08CFAF8BD022E40F0A18038880A28C0F29D80B0F5486F00F3998015E00F
:20471000022E40F095803888B0F5FA7F80F290800880F8BD022E40F08B8038880628C0F26C
:204730008780B0F5486F00F383801946891C0D4638E0022E7CD13888062879DBB0F5486F86
:2047500076DC1946F3E7012E72D1387806286FDA891F0D460EE0012E6AD13878042867DAB5
:2047700015460B3506E0012E62D1387808285FDA15460A352870F8BD012E59D13878042811
:2047900056DA1546093506E0012E51D1387804284EDC154608352946DBE7022E48D1388831
:2047B000154612352946B3E7012E41D11546687901283DD011793878107161B9002837D087
:2047D0009078012803D0042818BF052830D1012004F036FFF8BD387850BB9078022818BFD1
:2047F000052825D105F018F8F8BD154605F1870400211F22204602F0E5FB394632462046F9
:2048100002F058F90020EE710EE0154605F1680400211F22204602F0D5FB39463246204634
:2048300002F048F90120AE713146224603F0AEF9F8BDC046640A0020A80A0020A40A002093
:204850002DE9F04F054600278B460846ADF14C0D0C9705F0D6F905F11C0041F2883102F014
:204870004BFD05F11C044FF0FF368046B8F1020F10DB204641460CAA04F002FA0C998845E6
:2048900008D12818B5F84010067F19B105F1380005F043F8B6B230460A3800F08E80801E89
:2048B00003D00B3800F0E080E1E00D9438460E9014210EAA204604F0E3F90E9A0D994FF054
:2048D000FF33AC1840180D901C34281A111811F1080F45DC0DA805F0D9F80C2840D10DA873
:2048F00005F0D4F860F30703C3F341100290C3F300128DF8092013F003008DF8180007D100
:204910000299032904D10DA804F06BFF089012E030F0010005D10DA804F063FFADF81C008B
:2049300009E00DA805F0B2F88DF81C000DA805F0ADF88DF81D000DA804F053FFADF80C00EC
:204950009DF8180038B90298032804D10D980899079009180D910D980490241A059402E081
:20497000002B40F08780D5F8982005F1980101241AB9D5F89C30002B76D0002C74D002A895
:2049900006AC0090D5F89C300194002B6CD01AB949686846884767E0D5F8A020D5F89800F6
:2049B00000EB6200520803D349680268525801E0D5F89C206946904756E0B8460F94204678
:2049D000142110AACDF8408004F05AF9109A0F994FF0FF33AC1840181C340F90201A1428C8
:2049F00015DC0FA805F052F80A2810D10FA804F0F8FE1FFA80FA0FA804F0F3FE1FFA80F94B
:204A1000CDF824800F980B90241A0A9401E0002B30D105F108040620119404F0E8FF014603
:204A300014291FDC119804F057FB1199401811900B2111A805F042F8514611A804F06CFADE
:204A5000494611A804F068FA394611A805F036F81199091B002905DD28465A4603F018F863
:204A7000C7B204E0FF2702E0384685F84200284602F0CEFB07B9F7B213B03846BDE8F08F8D
:204A90002DE9F047DFF80CA20746AAF13500DFF8F8810068800880F0E78004F093FA8149B5
:204AB00008310B6800261C17641C990D0AD2C0F13E0110F10A0F4FEAE101D8BF08218C422C
:204AD000B8BF0C1CDFF8C4C1990E0FD2590E0DD36246143A1168C1F304211629A8BF2039B5
:204AF0001268C2F30462162A0EDB0CE0634AD2F87C11C1F304611629A8BF20391268C2F3B1
:204B10000442162A00DB203A61189146162905DA11F10A0FB8BF6FF0090100E01521584CA7
:204B3000584D01F01F0242F4F85222802A6812F0030F18BF0126D20828BF46F002060FB129
:204B500046F00406424692F90740041B052C04DA9479B44208BF918866D00F28A0F10F0885
:204B700027DB08EB0014A4F1F0084FEA282EBEF1070F88BF4FF0070E7546062D88BF062540
:204B90005CF82570042404EB850465462C59E41B04F0FF05F70824BFC4F307273D44B7084E
:204BB00024BFC4F307473D44770828BF05EB146501E00025AE465CF82EC0F7080CF0FF0473
:204BD00024BFCCF307273C44B70824BFCCF307473C44770828BF04EB1C64ADB2A9EB01017C
:204BF000A8EB0E277D43002905F1800504EB1524D8BF012103F0FF0334254D43A9B25943C3
:204C10004FF6FF73B1FBF4F18B4238BF191C802889B2918005DA10F1800FB8BF6FF07F008B
:204C300000E07F20D0719671194800681F2910604FF0000008D340F2FF128A4206D24908CA
:204C5000401C8A42FBD301E01F219180124F0F39090940EAC10047EA0001CAF8FB1F002642
:204C7000CAF8FF6FBDE8F0870C490D4F424608200F60921D1070BDE8F087C0463C1100501A
:204C90006E62084024220840382400209C130050082009403500094000E7A4803010094060
:204CB000FDFDA400AC3F005001282DE9FE4F40F0EE80DFF810B2DBF8DC00012840F0E480DC
:204CD0000220CBF8DC0004F0C3FA012003F038F95FEA000805D00120CBF8DC0004F0C8FA71
:204CF000D7E004F084FF6C49029000200860012004F078F8012818BF002003D1002002F01C
:204D1000A1FC0120654900900020654F08603868112004F08BFE00280CBF00240124102091
:204D300004F084FE08B144F002040F2004F07EFE08B144F004040B2004F078FE30B1624846
:204D500014300068574E016B308888470A2004F06DFE002600B101264FF0805A0AF5DC750F
:204D7000301C04D02868504E016B308888474F48012606602868816944F0200088474C488D
:204D9000066004F04DFE00F001010191400814D2484804F0BBFD8146B9F1040FF8D0B9F17A
:204DB000010F05D1DAF8D80142684248032190474149086820F0030008600020FFF760FE3A
:204DD0002B683868986B8047019801280DD0B9F1010F05D1DAF8D801426836483146904776
:204DF0003549086840F0030008602C48066028684169204688470B2004F018FE20B128683B
:204E1000284BC16A188888470A2004F00FFE20B12868254BC16A18888847244803220660E8
:204E30002349CBF8DC2000230B602868416B204688470128F9D13868042003F081F80446CB
:204E500015481E490660386808688009FCD30098012802D1304602F0F5FB04F0D4FD0820D7
:204E700003F06EF807460298CBF8DC6004F0C4FF1348008802F0E4FA04F0FAF957EA04004D
:204E900018BF4FF0FF3804E06FF0040801E06FF001084046BDE8FE8F0C4009400002224369
:204EB0002C200940129F00000E9F00002820086080010443004003402422084014100940F9
:204ED00090A10000B8120020A40100102DE9F0411C4615468C4208BF854282BF002300220C
:204EF000E5E0002C08BF002D0AD100290EBF00286FF000006FF0000100F0E1F8BDE8F08126
:204F10005FF000085FF0000E002C08BF8D429CBF2C1C0025070C47EA01470E0CB44208BFE0
:204F3000BD429EBF5FEA044444EA15445FEA0545070A47EA01670E0AB44208BFBD429EBF7F
:204F50005FEA042444EA15645FEA0525470847EAC1774E08B44208BFBD4200F29380870858
:204F700047EA81778E08B44208BFBD427CD8C70847EA4177CE08B44208BFBD4266D80709BA
:204F900047EA01770E09B44208BFBD4250D8470947EAC1674E09B44208BFBD423AD88709FF
:204FB00047EA81678E09B44208BFBD4224D8C70947EA4167CE09B44208BFBD420DD8E60171
:204FD00046EA5566EF01B14208BFB84201D3C01BB14158EB08085EEB0E0EA60146EA956607
:204FF0004FEA8517B14208BFB84201D3C01BB14158EB08084EEB0E0E660146EAD5666F018D
:20501000B14208BFB84201D3C01BB14158EB08084EEB0E0E260146EA15762F01B14208BFB7
:20503000B84201D3C01BB14158EB08085EEB0E0EE60046EA5576EF00B14208BFB84201D3B5
:20505000C01BB14158EB08084EEB0E0EA60046EA9576AF00B14208BFB84201D3C01BB141E6
:2050700058EB08084EEB0E0E660046EAD5766F00B14208BFB84201D3C01BB14158EB080880
:205090005EEB0E0EA14208BFA84201D3401BA14158EB08085EEB0E0EA34208BFAA423EBFA9
:2050B0002D0A45EA0465240A89D3734642461E4617460B46024631463846BDE8F08170472A
:2050D0002DE9F04103200121ADF5B47D02F08CFC59A804F0C3FC08A859A901F0E9FF6F49F0
:2050F0001CC94DA81CC00EC965A780E80E0002264F9766A58DF84C610024ADF84841298843
:2051100054AB1980099904A804F0A2FC9DF8C4004FF0FF3600287BD1BDF848819DF84A71F8
:205130002046ADF8608007B101200AAB5099519A8DF863004F98569304F039F8401D04F0E4
:2051500056FC0146142963DC184603F0C5FF569940185690042156A804F0B0FC9DF84B1134
:2051700064F3070525F00C05B80000F00400C900284301F00801014356A8C9B204F09EFC71
:20519000012156A804F09AFC414656A803F0C4FE4F99509A519B56A803F058F9569908A87C
:2051B000091A0839002933DD08A804AA02F070FC002831D1BDF8601011B116A804F0ADFB1B
:2051D00004A804F051FC30B908A804A9FFF738FB0646052EF4D1052E1ED10FA8142158AA0F
:2051F000579003F04DFD0346589E5798FF27032E1844579009DB57A804F048FC052804D196
:2052100057A804F043FC074601E0012B04D13E4616B901208DF8C4000925099906A804F0EE
:2052300017FC9DF8C400A0B1559819A7539A549B0090214601970AA8029501F089FC014683
:20525000002906DD08A806AA02F022FC08B18DF8C4404FF47A7004F0BFFDDEE706A800F040
:20527000C2FE02F0AAFA04A800F0BDFE02F0A5FA08A801F0E0FE59A802F087FC02F09DFA62
:2052900073686C3132333435363700C0736800C06D797061796C6F616400C046DCA000009E
:2052B0002DE9F04FADF12C0DFFF730F86B4E082700250A20ADF80200ADF800704FF0FF342F
:2052D0000194684603F0BCF9002840F0A3800795ADF810700920ADF8120004A803F0B0F96F
:2052F000DDF818900028CDF81C9040F08E80BDF814004FF00108102852D1F0789DF81610BB
:2053100088424DD14C4620884FF6FF71814217D02078B02844D1607816280BD1608839461E
:2053300003F0DCFC30B9404603F09EFD0798A846306235E0217904F1080004F0CDF82FE002
:20535000608800092CD3346A54B330796388401C307194F804B00993102003F039FF04F1EB
:20537000080A041C1CD00221152204F00EFB0998208184F80AB0C4F80CA003F039FF384A1B
:20539000214603F009F80446162C09D0042C07D0306A4088294603F0A1FC204603F064FD1B
:2053B0000798002831D0B8F1000F2ED0484604F0CFF82AE0F069044604F00AFD844208BFE1
:2053D0002C1C02D0846804F0ABF8201CA0461CD00488641E0CD0641E0DD1807818B1801E69
:2053F00009D1022000E0284608A902F00DFE02E0807800F0F9FDADF808700520ADF80A00F4
:20541000CDF80C8002A803F01BF9F06904F0DCFC0028CFD0F088C108FFF44BAF20F004004C
:20543000F08004F00FFBB06904F0CAFC707800283FF43FAF3078757014280ADC48B1F268E8
:205450000146032000F048FE002804BF0120B07000D0B570306904F0B3FC2AE70802002004
:20547000639900002DE9F04FADF1240D079000F029FC6148007803F09FFC604D00240128A7
:2054900008D90A380FD0801E04D0401E0ED0401E09D006E004F080F8022804BF01210C1C8C
:2054B00006D0696805E005211F2401E0032107246960534A1068C0F38150012806D152F80B
:2054D0000C0C0127020E07FA02F0044304F0D4F9524AFF230818401E471C28607F1E02F8B3
:2054F000013BFBD1079A1268002702F0FF03FE2B20D0DDF81CC096463B4601260EF0FF0211
:20551000FF2A10D0904205D3914203D806FA02F2144201D002206CE017430EF0FF02DFF861
:20553000FCE00EF802305CF804EF5B1C0EF0FF02FE2AE5D1092001F0C1F807980121A86010
:2055500005F1280003F07AFC05F19806A8464FF0010A4FF0040B0025A9460AFA05F0044247
:2055700016D1074204BF05F0FF0141F4C04104D02A480799405D51F82010224800F092FE17
:20559000E8B24FF0FF3103F01FFFC6F8009001E0C6F800B0D8F800006D1C361D8542DCD91C
:2055B00004A804F041F9184C184A2078102104AB059008F10C0002F067FD684604F064F9D4
:2055D000CDF80C906A4660681149029008F1640002F06AFE0F4951F80D0C20F4F85040F4F5
:2055F000005041F80D0C0C4FC1F8FFAF4846C7F800A009B0BDE8F08F48240020A41100200C
:20561000B43F0050007FC767A4A30000F5930000C10F00000D30094008000940E8110020FB
:205630002DE9F843614C5A4D5A4EDFF870815E4F94F8E4100846401E0B2864D8DFE800F046
:205650007B2C43062343062343067664042907D001220A2945F8212C14BF0220032004E0B8
:20567000202045F8210C0120024684F8E200002045F8390C0827C5F8FF7FC5F8F37F45F831
:20569000392CBDE8F883052914BF09200620002784F8E400376075E094F8E170383D01203F
:2056B000002FC5F81B0004BF0620002102D00021F160032084F8E400032045F8010C316004
:2056D000306880085ED294F8E4103348012703290ED0006845680021602205230091404646
:2056F000A84794F8E400062814BF0A200720CFE7006845680021602205230220009040461B
:20571000A8470420C4E7FEE72548264F0026012506600E203D6000F073FF022003F060F8A8
:2057300084F8E45084F8E360BDE8F883002038600C25786024E04FF08059D9F8A001016812
:20575000202088472C3D0F2045F8010C41F61D56C5F80360D9F8A401466800214FF4C072C4
:205770000723022540460095B047D9F8A401C66800214FF4C07207234046B047012038601C
:2057900084F8E45004F1780004F013FABDE8F88339400C4038600C40A401001000A00C4071
:2057B0002C500C4004800C4034600C40B81200200168490000EB6100704710B5564B0268F2
:2057D0000C4604F10800834203D0FFF7F1FF034601E04FF0FF332046FFF7EAFF904288BFF3
:2057F0004FF0FF3003D80020934298BF012010BD2DE9FC410546484A484800270091891EF7
:20581000121A2F61D4100091641E17D43E468446301900EBD0704110884668460CEBC8018B
:20583000FFF7CBFF0028414605D054BF4E1C4C1EB442EDDA02E00CEBC10000E0384606462C
:20585000F8B1321D106801281BD03046FFF7B0FF71682863080804D21046FFF7A9FF3946DC
:2058700001E0301D01216863A963686B48B101680A080FD3C1F3036050B1401E06D0401E1E
:2058900002D00920BDE8FC81254805E0254803E0254801E0FFF78CFF014638462961BDE876
:2058B000FC8170B50E4604463046FAF7A5FE054620462946FFF79CFF70B92069E56021467F
:2058D00032460346012098470828EDD0072803D13046FBF715F970BD02F006F970BD38B559
:2058F0000C460546E9682046FAF78BFE286929462246034602209847082807D0072801D011
:2059100002F0F2F82046FBF7FBF838BD28462146FFF7C7FF38BDC046E8AB000048AA00004A
:20593000070B0000FD0A0000F30A000038B505465418A81A43B1049911B91946884738BD5D
:205950001A462146904738BD04F061F938BD2DE9F8430546A86AD5F81C8010B10020FEF774
:2059700026F96869D5F80090AC6818B929696868401A00E02869B8F1000FA0F1010109D094
:2059900004FB019630B107463046C0477F1EA6EB0406F9D1A86948B1686A00906868EA6826
:2059B0002B6A04FB00F14846FFF7C0FFBDE8F8832DE9F047054692460E460020ADF1300D30
:2059D00005B901200027814605B901270024B846AC4202D086B1AC4207D106F1500004F0EA
:2059F000AEF800B13018051C2AD02EB1102045F8080C052745F8047CB8F1000F10D0CDF837
:205A100018900396CDF824A0009504940A94012005902746079708970523019310220292FF
:205A3000DFF868902F46052614B93846C84702E038462146C84704B110341037761EF3D11F
:205A5000284611E0FEF79CF8B8F1000F0AD06846FFF77DFF06E0FEF793F80020FEF7A7F882
:205A7000FEF7CAF9FEF7AAF90CB0BDE8F087FEF7C3F9FEF7C1F901F0A0FE10B500210446CF
:205A90000A46FFF795FF204610BDC0462F9B0000364AF8B5101D0368B3F1FF3F08BF002388
:205AB00003F084FC012860D1314E10683268070F02F0FF02802A28BF002203F077FC4FF017
:205AD000FF31012805D1381C4FD0801E04BF143251B2142949DB2748274900250127056078
:205AF000264E0F60264C376020680028FCD1274A161D2449244F306820F00300014338681A
:205B1000C0080CD2106810F0030F0AD041F003003060106800F003000328FAD101E041F034
:205B300001011B483160006820B11A4800681846FDF788FD184819490560194F0A686FF322
:205B50005B4247EA0200086016490868C0F30130012806D10A681448104040F400320A605C
:205B7000086020680028FCD1F8BDFEE718130050A0100050840460425C600C400822044378
:205B90000C00684204000020B03F00500040034080012843000120438C2108404820034069
:205BB0000000390104000940FFFFFCFC2DE9F0413A48394908603A48FFF754FC394C201D1B
:205BD00004F1100101F010F805210023364A206004F11C0003F01EFA4FF08055D5F8D80197
:205BF000324C036801210A4620469847D5F8D801426801212046904731490024032018313C
:205C100041F80C4F401E8C60FAD1294D062005F14C010A46401E22F80C4BFBD10820254F65
:205C30000880254A8F602549121D22F00303CF1A6F62EB612B62EE6905F120089446184679
:205C50000A4601E026F8024BB142FBD8B910E82700EB810121F8044C4FF6FC761F8006EADE
:205C70000C0300F1E807D21A6F6106EA0201EC39A0F8E810204601F021F9A861D8F8000077
:205C9000686101F071FB02F09FF900F071FD04F093F82046BDE8F081A8170020417E00004D
:205CB000D49F0000801500200D91000000400340CC1300202192000049240020183F0020D5
:205CD000D01300202DE9FF47424C94F8E70000286ED10127384D84F8E770E87C84F8E600A7
:205CF0006E68C4F81061684603F02DFF002604F10C0001966B468DF80060304902963246E7
:205D100002F006F82E4904F130006B46324601F0FFFF2C4904F154006B468146324601F030
:205D3000F7FFA96838468847DFF8A48026482A7D08F104030078254D1868C0F3815A22B124
:205D5000BAF1030F04D184F8E170BAF1030F15D0BAF1020F12D0BAF1010F0CD0022002F0E9
:205D700001FF042003F03EF8012804D028683221B1FBF0F10DE002F0B5FA12E0022002F0C5
:205D9000F1FEBAF1030F0CBF4FF47A7142F210712868B1FBF0F1484603F009FF484603F072
:205DB00008FF40460068C00802D2304602F0DAFE00200090BDE8FF8780A10000D77F0000B0
:205DD000E1680000897500004824002040240020B03F0050B81200202DE9F8431E468046B8
:205DF00008AFDFF8F8900B783888022B4FF0FF0765D14D686B782D78002405EB032542F6E1
:205E10000213ED1A2BD04DF2EF63ED1A0AD06D1E53D100284FD1012E4BD11078C9680127C6
:205E300008704FE018B9142EC8BF0D2400E00B2411464D46324605F1100000F03BFE142EFE
:205E500008DA70190021C6F1140310305B1E00F8011BFBD1E86803F0B3FF002732E050BB06
:205E7000022E26D15078157805EB002535F001061DD1C86806684046314603F019FA00289E
:205E90000CBF201C807885421AD04046314603F00FFA50B931464FF6FF7003F009FA0028F7
:205EB00008BF11240CD0A0F80080857008E0802406E00D2404E00B2402E00A2400E0012422
:205ED000FF2F07D04D462D1D286818B1016809B1384688472046BDE8F883C0461C1000202F
:205EF0002DE9F0430746ADF11C0D03F061FF02F0F1FD4FF000090646CDF80C9003F0CCFD51
:205F100030F0010002D00398B04202D16FF0040066E078684C4658B1B0F1FF3F05D004A999
:205F300002F0C0FD30B1804659E04FF0FF3000E02046049003F038FF049D4FF001082D1822
:205F500002E00A463BE004937068049903F028FF00282DD0684601F071FDD8B99DF8040062
:205F700005A902F087FB88B9BB68BDF814009DF80610029A984748B1BDF814009DF80650EF
:205F9000B881029BBD73C8463B6111E0029903A802F0D0FE0498641CB0F1FF3FD4D0002883
:205FB000D2D003F001FF2B1A02D004989842CAD2039F03F05DFA06F1080547B13A4652F861
:205FD0000C1C0029BDD1296842F80C1C2F6003F08BFB24B1706803F0F3FE641EFAD1404673
:205FF00007B0BDE8F083704710B5401EADF1300D3FD0C01E36D0401E37D0401E61D103F032
:2060100021FD00208DF82800082003F0E1F8041C0CD00121182203F0B8FC03F0E9F80AA90B
:206030000123294A0091214602F0D4F9102003F0CFF8041C10D00121192203F0A6FC9DF891
:206050002800401E208101AAE26003F0D1F81F4A214602F0A1F9A0B306A940F21530FAF79A
:2060700017FF2EE01A4803F0CAFD142002F0FCFE27E04FF4417008A9FAF70AFF9DF8214014
:206090008DF805409DF822308DF8063000228DF808209DF825108DF807209DF820008DF805
:2060B0000B109DF824408DF804009DF823308DF80A4008498DF8093001AC22680A60606804
:2060D00048600CB010BDC0467F990000719900001C030020570E00202DE9F84F364E0C4660
:2060F00000284FF00005114658D0401E52D0401E49D0401E5CD1142C52DA06F12400224634
:20611000814600F0D7FC132C07DA04EB0901C4F11300401E01F8015BFBD1B76889F8134092
:20613000002F46D0254801782C46B3468246A1423FDDA0003E18385A4FF6FF7181421DD005
:20615000B078D8B10BF178001121C268914504D0491E00F11000F8D110E08046B0784108AC
:2061700005D330880121424600F064FEB078800804D330880221424600F05CFE9AF80010AD
:20619000641CE4B2D3E7012C0AD13046401C097801700EE0012C03D13046F8E7142C01D0FE
:2061B000182506E030461422103000F083FC00E002252846BDE8F88F1C100020640A0020D6
:2061D000F8B503F01AFC01F06FF903F029FC054605F00C000C2853D0E80826D202F086FE87
:2061F0002A4E376804460120014603F0C0F831686143884219D22649F020B0FBF7F0241ADA
:20621000887C18B1C868A04238BF041C214D2146284603F0C1FD284603F0BAFD0120FEF756
:2062300043FD284603F084F82CE0280928D21A4803F06CFB0428FAD0184A690905D220B1CC
:206250001168104621F0010103E01046016841F001010160983210684FF0805540F003008D
:206270001060D5F8B8018169202088470C4CD5F8B8712068B86B804701202060206801E055
:20629000FBF776F803F0BFFBF8BDC046E0A3000080A10000C4120020004003408C21084014
:2062B0002C2009402DE9F0470D4606465FFA85FA280824BF2E4845402E494FEA8A03C8580A
:2062D00085EA00023240C2F300672B4A06EA0504B043224006F4E0240243B4F5E02F01D11F
:2062F000500E14D306F4E020074310D002F4E027B7F5A02707D0B7F5803704BF22F4003270
:2063100042F4A02203E022F4803242F4C022DFF86C80CA5008F1D00739680122002002FA25
:206330000AF40C4218BF101C5FEA000906D1F00D04D34146C5F3805001F80A00300E0BD3D3
:2063500003F03DFC290E34BF0021211C3A68A2431143396003F054FDB9F1000F06D0F00D35
:2063700004D34046C5F3805100F80A10BDE8F087006000A000100840007F077F002002403A
:2063900080B50288A2F602073FB143F20502BF1A14BF002290F8242000E0C27B2D482430E1
:2063B000D0F88832521F0B6048D0521E3CD0121F30D0921E24D0D21E18D00F3A0CD0D0F841
:2063D00090224A60D0F894228A60D0F8BC0220F0784040F080503AE042694A60C26A8A6016
:2063F000406C20F0784040F0704030E002694A60826A8A60006C20F0784040F0F04026E0A4
:20641000C2684A60426A8A60C06B20F0784040F0C0401CE082684A60026A8A60806B20F0FE
:20643000784040F0A04012E042684A60C2698A60406B20F0784040F0405008E002684A60FA
:2064500082698A60006B20F0784040F02050C86080BDC046A0100050E0B501880025A1F63F
:20647000020159B143F20402891A04D0491E19D190F8246000E00226C76901E0C67B4769E6
:2064900087B13F1F052044F2380357F8041F0A04120C934203D0401EF7D13F1D01E0C1F363
:2064B00003450DB90120E0BD1F4B3046401F17D01C4A401E0FD0001F0BD0801E07D0C01EEA
:2064D0000AD00F381ABF1A1C6032121D04E0121F02E0083A00E00C3A1068C0F3834003E08B
:2064F0001A461068C0F303200F2806D0A84216D921F4702141EA004110E0761F0AD0761FF2
:2065100008D0761F06D00F3E1CBF21F4702141F4802103D121F4002141F4E021396000208B
:20653000E0BDC04604110050201300504068704708B501F013FF3149016008BD024608466B
:2065500008B511460122884208D0FFF7EFFF03460846FFF7EBFF834218BF0022104608BD1E
:2065700008B103F0C7BA7047704708B103F0C2BA7047704708B103F0BDBA7047704708B190
:2065900003F0B8BA7047704708B103F0B3BA7047704708B103F0AEBA7047704708B103F063
:2065B000A9BA7047704708B103F0A4BA7047704711A07047704708B518B1FFF7FBFF03F0FA
:2065D00099FA08BD0CA07047704708B518B1FFF7FBFF03F08FFA08BD08B103F08BBA7047DA
:2065F000704708B103F086BA7047704708B103F081BA70477047C04600C046C0E0A10000D8
:206610002DE9B043044603F0DAFA81462748021992F8EF10491ECFB2002F82F8EF703FD176
:20663000254901EB84014A880C78904634F07F0718D1E1090FD24FF0805000F5DC75D0F8C4
:20665000B8018169104688472868416B404688470228F9D11EE000EB8800D0F8041100206F
:20667000884717E04FF08055D5F8B801016A10468847D5F8B801816A40468847D5F8B801CE
:20669000016B404688470A4901200860094908688008FCD304F03F003F2801D0FFF7B0FF24
:2066B000484603F0ADFB0020BDE8B083B81200202820086028200840E49E0000F8B5064604
:2066D00003F07DFA264D0746A91991F8EF00421C002881F8EF203ED1224C04EB86042678A4
:2066F00006F03F003F2801D0FFF7E8FF648836F07F0018D1F0090FD24FF0805000F5DC7597
:20671000D0F8B8014169204688472868416B204688470128F9D11EE005EB8405D5F804114C
:206730000120884717E04FF08055D5F8B801C16920468847D5F8B801416A20468847D5F836
